:100000000C94F9000C94851F0C945E1F0C94210134
:100010000C9421010C9421010C9421010C942101D8
:100020000C9421010C9421010C9421010C942101C8
:100030000C9421010C9421010C9421010C942101B8
:100040000C94141F0C9421010C944A120C94AC1FB4
:100050000C9421010C9421010C9421010C94210198
:100060000C9421010C9421010D221122112217223E
:1000700017221722172221222122802283228A225C
:100080008F228F228F228F2294229422130F756E3B
:100090006F006D626C6B0065787000666C616773F1
:1000A00000757000646576696365207374617465BA
:1000B000004C45465400524947485400464F525759
:1000C000415244004241434B5741524400696D70D4
:1000D00000646F776E004C6566745475726E0052E2
:1000E000696768745475726E0053747261696768E9
:1000F00074466F727761726400466F7277617264E2
:100100004261636B77617264001011130610051071
:10011000590013061106136A13071003001306167D
:100120000710050013061309130A16010100130630
:10013000100A130A160101001306160A130A160103
:1001400001001306160B130A16010111010111011A
:1001500001001306170C136A130D10030013061683
:10016000031005001306100E130A160101001306F2
:10017000110F130A1601010013061310130A1601BA
:10018000010013061312130A1601011101011101D6
:1001900001110167DB00000000250028002B000092
:1001A000000000240027002A000000000023002691
:1001B00000290004040404040404040202020202EC
:1001C000020303030303030102040810204080011B
:1001D000020408102001020408102000000008009A
:1001E00002010000030407000000000000000000FE
:1001F000F02A11241FBECFEFD8E0DEBFCDBF11E043
:10020000A0E0B1E0E2E0FDE502C005900D92AC3E59
:10021000B107D9F727E0ACEEB1E001C01D92AE3ACC
:10022000B207E1F710E0C9EFD0E004C02197FE016A
:100230000E945A2DC83FD107C9F70E943E260C9450
:100240007F2E0C9400002F923F924F925F926F92FC
:100250007F928F929F92AF92BF92CF92DF92EF9256
:10026000FF920F931F93CF93DF93CDB7DEB7C8599B
:10027000D1090FB6F894DEBF0FBECDBF20906A073C
:1002800030906B072114310411F40C94EB11F1013F
:10029000E159FF4F4080CD56DF4F4882C359D040CF
:1002A0005180CC56DF4F5882C459D040D10190962E
:1002B0008D919C919197009709F052C012968C9164
:1002C000882311F40C94DC11CE0101960E94E31AEC
:1002D000F10124A589819A81AB81BC81222389F017
:1002E00044A155A166A177A12C013D01441A550AEC
:1002F000660A770A01ED401607E0500661047104B2
:10030000F4F0F10140A551A562A573A5841B950BDE
:10031000A60BB70B853F9140A105B10584F0C10143
:1003200088960E94E31A89EF91E0D10191969C93FF
:100330008E9390979C961C9200E010E002C004E01F
:1003400010E00430110511F40C94DC1101151105B5
:1003500011F00C94710AC1010E948C1B0C94710A5B
:10036000F101408140FD86C12DEFA9962FAFA997DD
:100370002BEFA8962FAFA89729EFA7962FAFA79797
:100380002CEFA6962FAFA6972AEFA4962FAFA4978F
:100390007101F9E4EF0EF11CD7012D913C9124304D
:1003A000310509F448C145FDAEC02130310501F1E8
:1003B0002230310509F465C00E94101DC101855B22
:1003C0009F4F0E94E31A8E01015A1F4F21E030E037
:1003D00040E050E0BE0168597F4FF10180A191A13A
:1003E0000E943125E1E0F0E0D701ED93FC9320C1BC
:1003F0008E01055A1F4F20E230E040E050E0BE0180
:100400006F5F7F4F0E94FE256F968CAD9DADAEADA8
:10041000BFAD6F970197A109B1098101055B1F4F1E
:1004200068018F319105A105B105F0F4E1E0F0E03C
:10043000EC0FFD1FE80FF91F80818C3FA9F48E019E
:10044000015A1F4F21E030E040E050E0BE01695901
:100450007F4FD10190968D919C9191970E9431256B
:10046000C6010E94E31ADFC02FB7F89480910506F9
:1004700090910606A0910706B09108062FBFF601DD
:1004800030C08E01055A1F4F21E030E040E050E0BF
:10049000BE016F5F7F4F0E94FE256F968CAD9DADB4
:1004A000AEADBFAD6F970197A105B10561F489812C
:1004B0008A3F49F4C1010E948C1B84E090E0F7015F
:1004C00091838083B8C02FB7F894809105069091EE
:1004D0000606A0910706B09108062FBFF101E55B63
:1004E000FF4F4081518162817381841B950BA60B64
:1004F000B70B8D329140A105B1050CF499C0D7011D
:100500001D921C9295C022303105F9F0233031053F
:1005100009F454C02130310599F08E01015A1F4F62
:1005200021E030E040E050E0BE016A597F4F0E9478
:10053000312544244394512CF7015182408278C0E4
:100540000E94101D82E090E035C08E01055A1F4FB9
:1005500020E230E040E050E0BE016F5F7F4F0E943C
:10056000FE256F968CAD9DADAEADBFAD6F9701977B
:10057000A109B1098F319105A105B10508F058C055
:10058000E1E0F0E0EC0FFD1FE80FF91F80818D3FE7
:1005900009F04EC00C5F1F4F21E030E040E050E01A
:1005A000BE016B597F4FF10180A191A10E943125BD
:1005B00083E090E0D7018D939C933AC08E01055A59
:1005C0001F4F20E230E040E050E0BE016F5F7F4F00
:1005D0000E94FE256F968CAD9DADAEADBFAD6F9701
:1005E00081309105A105B105D1F489818B3FD9F402
:1005F0000C5F1F4F21E030E040E050E0BE016D593C
:100600007F4FF10180A191A10E943125C1010E947B
:100610008C1B84E090E0D7018D939C930CC0892BB8
:100620008A2B8B2B29F082E090E0F7019183808365
:1006300084E090E002C080E090E08430910511F405
:100640000C94DC11892B29F1810105581F4FD80129
:100650008C91882309F438C7C1010E948C1BD801F2
:100660001C92C1010E94441AF101ED58FF4F118202
:1006700010822AC760E2462E6EE4562E612C712C41
:10068000C757DF4F488259826A827B82C958D0405F
:100690000DC05AEF652E712C812C912CC757DF4F5E
:1006A000688279828A829B82C958D040CE01855A5D
:1006B0009F4F0E94E31ACF57DF4F19821882C1580B
:1006C000D04081010F5B1F4FCF56DF4F1983088346
:1006D000C159D040910123593F4FE9963FAF2EAF0A
:1006E000E997A10149595F4FCD57DF4F598348839F
:1006F000C358D040B10167597F4FC357DF4F79834B
:100700006883CD58D040C101815A9F4FEF969FAF6B
:100710008EAFEF9781010F591F4FED961FAF0EAFB0
:10072000ED970C5E1F4FE7961FAF0EAFE7978091D6
:10073000ED018111D8C5D1018D919C918C01017081
:100740001127E5961FAF0EAFE597CF56DF4FA88173
:10075000B981C159D0404D905C90F101ED5BFF4FE4
:1007600080809180A280B38004E610E0612C712C1F
:10077000C12CD12C7601AC961FAEAC97AA961FAEB9
:10078000AA973C96EB96FFAFEEAFEB979101235DF6
:100790003F4FCB57DF4F39832883C558D040A10145
:1007A000485B5F4FC157DF4F59834883CF58D040D4
:1007B000E5966EAD7FADE597672B09F078C0D20165
:1007C0008C918F3F71F481E090E0181419041A04A1
:1007D0001B0414F480E090E066247724681A790AF8
:1007E0005EC0B6E08B169104A104B1040CF44FC0B6
:1007F000F2018481682E712C6301F7E0CF0ED11CC9
:10080000E12CF12CD2011396BC91AA96BFAFAA9706
:10081000B7FF0AC0F201F581AC96FFAFAC972FEF9E
:10082000C21AD20AE20AF20AAC963FADAC9731FF87
:1008300006C043E0C40ED11CE11CF11C0AC0AA96FC
:100840005FADAA9753FF05C06FEFC61AD60AE60A36
:10085000F60AAC967FADAC9770FF06C083E0C80E79
:10086000D11CE11CF11C0AC0AA969FADAA9792FF69
:1008700005C0AFEFCA1ADA0AEA0AFA0AB1E6CB16DD
:10088000D104E104F1049CF004E610E029C5181439
:1008900019041A041B048CF066246A94762C33E045
:1008A000C32ED12CE12CF12CAA961FAEAA978C1442
:1008B0009D04AE04BF0461F490C0AA961FAEAA972F
:1008C00066246A94762C27E0C22ED12CE12CF12CE0
:1008D0008201080D191DC158DF4F19830883CF57B6
:1008E000D040D10190968D919C919197892B61F286
:1008F00097018601081919092A093B09E3960CAFEB
:100900001DAF2EAF3FAFE39789E096E00E9439120A
:100910008C01092E000CAA0BBB0BE3962CAD3DAD50
:100920004EAD5FADE397281739074A075B0724F4FC
:10093000E1960EAD1FADE197B801C158DF4F888138
:100940009981CF57D0400E94A425012E000C220B84
:10095000330B0115110521053105E9F1800E911EBA
:10096000A21EB31EEB96EEADFFADEB978081918199
:10097000A281B381080F191F2A1F3B1F0083118317
:1009800022833383CB57DF4F88819981C558D0406C
:100990000E94E31A181419041A041B046CF4F201DF
:1009A00080818F3F49F0C157DF4FA881B981CF586F
:1009B000D0409C91891368CF00E010E08C149D0416
:1009C000AE04BF0451F475016401BFEF6B167B06E2
:1009D00009F4EECE02C000E010E0F101ED5BFF4F44
:1009E00080829182A282B3828C149D04AE04BF04E3
:1009F0000CF474C4F20180818F3FC9F4818192812B
:100A0000A0E0B0E0A101455A5F4FFA0180839183D5
:100A1000A283B383F101208120FF41C4F20123812D
:100A2000A22BFA0180839183A283B38338C4E59615
:100A30008EAC9FACE597892881F4018112811282E6
:100A40001182B701A601C2010E9473250817190778
:100A500009F01ACF85E090E002C084E090E0840DB8
:100A6000951DAC968FACAC9781100196A5969FAF63
:100A70008EAFA597AC964FADAC974270AA966FAD6E
:100A8000AA976870CE018D599F4F0E946A144B013E
:100A90005C01AC964FADAC974170AA966FADAA972A
:100AA0006470CE018D599F4F0E946A146B017C01C6
:100AB000D2018C918F5FF101E85BFF4F893C08F018
:100AC00081E08083AA964FACAA9745FEB4C3A59651
:100AD000EEADFFADA5978081813021F0823009F421
:100AE0000CC3DBC3CF010296A1969FAF8EAFA19737
:100AF000118148E350E060E070E0CE0101960E9471
:100B0000151C412F4470612F6270CE01815A9F4F96
:100B10000E946A1469877A878B879C878DA69EA618
:100B2000AFA6B8AA412F4071612F6870CE01815ADB
:100B30009F4F0E946A1469AB7AAB8BAB9CABA196BA
:100B4000EEADFFADA197CF010196A1969FAF8EAFFD
:100B5000A197808190E015FF09C09F012E5F3F4F54
:100B6000A1963FAF2EAFA1972181922B9EAB8DAB6B
:100B700016FD03C017FF2CC01DC09E01215A3F4F18
:100B800048E050E060E070E0CE0101960E948814D9
:100B9000892B09F009C79E01215A3F4F48E150E0D7
:100BA00060E070E0CE010D960E948814892B09F058
:100BB000FBC6E0CF9E01215A3F4F48E050E060E085
:100BC00070E0CE0185960E948814892B09F0ECC64E
:100BD000E996AEADBFADE9970D911C9189859A85D7
:100BE000AB85BC858832E3E29E07A105B10509F01B
:100BF00071C0E796EEADFFADE79780819181A2814C
:100C0000B381892B8A2B8B2B09F052C0F80184AD5C
:100C100095ADA6ADB7AD0097A105B10569F06C0122
:100C20007D01FFEFCF1ADF0AEF0AFF0AF801C4AE19
:100C3000D5AEE6AEF7AE34C081EAC82E86E8D82E2F
:100C4000EE24E394F12CB1E0CB1AD108E108F108CD
:100C500019F12FEF3FEF4FEF5FE769E273E280E0BA
:100C600090E00E94A01ED80114962D913C911597FA
:100C70002115310509F4A5C4F901EB58FF4F808017
:100C80009180A280B380681579058A059B05D9F209
:100C9000369720813181ECCF81E090E0A0E0B0E098
:100CA000E796EEADFFADE79780839183A283B38390
:100CB000E796EEADFFADE79780819181A281B38188
:100CC00089879A87AB87BC8744244394512C58AEBC
:100CD0004FAA14C087329342A105B10579F4F801F7
:100CE00080899189A289B3898832F3E29F07A1059F
:100CF000B10521F489879A87AB87BC87E996AEADA9
:100D0000BFADE997ED90FC90F701008111818984D6
:100D10009A84AB84BC843701F8E06F0E711C6701C4
:100D200024E1C20ED11C0115110509F4B6C2B801A7
:100D3000685E7F4FCE0185960E94E91D672B682B68
:100D4000692BE1F4F70180899189A289B38988161A
:100D50009906AA06BB0691F4B301CE0101960E9442
:100D6000E91D672B682B692B49F4B601CE010D965E
:100D70000E94E91D672B682B692B31F0D8019E96E4
:100D80000D911C919F97CFCFF101808187FD06C007
:100D9000B2E08B2E912C21E030E005C088248394B2
:100DA000912C22E030E0D8011A968D919C911B97EE
:100DB00082239323892B09F4BBC08DA99EA982238A
:100DC0009323892B09F4B4C0EF96AEADBFADEF9776
:100DD000ED91FC91309751F0878D90A1081719077C
:100DE00009F4A6C007A0F0A5E02DF4CFADA4BEA4E1
:100DF0004BE250E060E070E0C7010E9478236C0194
:100E0000009709F483C04BE250E060E070E00E947C
:100E1000151CF8014089518962897389D601509661
:100E20004D935D936D937C935397828586FD28C087
:100E3000440F551F661F771FC7010E947823F601D4
:100E400095878487009749F42BE230E040E050E03A
:100E5000B601C7010E94551959C04089518962895C
:100E60007389440F551F661F771F0E94151CF601DA
:100E70002485358580899189820F931F978786877E
:100E8000D6011196BC92AE9281E055968C935597FF
:100E900096963C922E92959790961C930E935F9700
:100EA000ED96AEADBFADED97ED91FC91D6019A9662
:100EB000FC93EE939997309719F0D0A6C7A206C07D
:100EC000EF96EEADFFADEF97D182C082ED96AEAD5D
:100ED000BFADED97CD92DC92D8019696ED91FC9145
:100EE0009797D6019496FC93EE939397309719F0C9
:100EF000D2A2C1A203C0F801D5A2C4A2D80197967C
:100F0000DC92CE929697FC2CED2C02C0F12CE12CB9
:100F10008F2D9E2D0E94C914F101808187FD08C08C
:100F2000EB59FF4F80819181892B11F4F082E1828E
:100F3000D8011A968D919C911B9788219921892B14
:100F400009F4ABC18DA99EA988229922892809F4A8
:100F5000A4C1CD57DF4FA881B981C358D040ED91CE
:100F6000FC91309751F0848D958D0817190709F47D
:100F700094C104A0F5A1E02DF4CFF80180A591A5BE
:100F8000009751F0DC015E96EC905E975F96FC90C6
:100F90000E94DB19C701F4CFADA4BEA4E996EEAD63
:100FA000FFADE997C080D18048E250E060E070E09A
:100FB000C6010E9478237C01009709F48EC048E2A4
:100FC00050E060E070E00E94151CD7011196BC92C1
:100FD000AE92F801408951896289738916964D93C2
:100FE0005D936D937C931997440F551F661F771F70
:100FF000C6010E947823F70193838283009749F406
:101000002BE230E040E050E0B701C6010E945519E4
:1010100064C026813781280F391F35832483F80166
:101020002089318942895389668577850E94091E06
:10103000D80150962D913D914D915C9153971E96FC
:101040006D917C911F97F701848195810E94091E03
:10105000D70193963C922E9292975D961C930E9395
:101060005C97C357DF4FA881B981CD58D040ED912F
:10107000FC91D7019796FC93EE939697309719F0D1
:10108000F5A2E4A208C0CD57DF4FE881F981C3582B
:10109000D040F182E082C357DF4FA881B981CD589B
:1010A000D040ED92FC92D8019A96ED91FC919B97DD
:1010B000D7019196FC93EE939097309719F0F78EA5
:1010C000E68E03C0F801F1A6E0A6D8019B96FC923B
:1010D000EE929A979E2D8F2D02C090E080E0F10154
:1010E000208127FDDAC0E559FF4F20813181232B74
:1010F00009F0D3C090838183D0C0E996AEADBFAD77
:10110000E997CD90DC90CF010296A1969FAF8EAF6C
:10111000A197F1804AE550E060E070E0CE010196D1
:101120000E94151C8F2D90E06B969FAF8EAF6B9732
:10113000F1018081918185FF16C0F4FE02C08F7796
:1011400010C087FD10C0806891838083E996AEADA2
:10115000BFADE997ED91FC9180819181F101ED584E
:10116000FF4F91838083F3FE06C0F101808191815E
:10117000926091838083F2FE07C0D1018D919C9192
:10118000119794608D939C939E01215A3F4F42E1A9
:1011900050E060E070E0CE0101960E9488148C015E
:1011A000892B09F07CC04F2D40746F2D6072CE01E9
:1011B000815A9F4F0E946A149E01215A3F4F48E175
:1011C00050E060E070E0CE0143960E9488148C01EC
:1011D000892B09F064C09E01215A3F4F4EE250E036
:1011E00060E070E0CE018B960E9488148C01892B00
:1011F00009F055C07601B4E1EB0EF11C68E071E036
:10120000C7010E94E91D672B682B692B21F0F601AD
:10121000848981110AC028E130E040E050E0BE013D
:101220006D5E7F4FC7010E94CE1D81E0F101E6583F
:10123000FF4F808334C0CD57DF4FA881B981C35899
:10124000D0400D911C910115110539F1D8015C9622
:10125000ED91FC915D9784899589A689B789F801FC
:1012600088169906AA06BB0609F4AEC104A115A109
:10127000EACF440D551DCA0184199509092E000CA9
:10128000AA0BBB0B181619061A061B060CF4C6C2CD
:10129000892B8A2B8B2B09F087C300E010E0F1012A
:1012A000ED5BFF4F1082118212821382F8968081CB
:1012B000811116C081E08083F101808187FF10C019
:1012C000E996AEADBFADE997ED91FC91808191813A
:1012D000F101ED58FF4F9183808302C004E010E0DC
:1012E0000430110559F4F10187A990ADA1ADB2AD5B
:1012F000892B8A2B8B2B09F074C004C0012B09F4B5
:1013000016CAA2C9808180FD09C08FEF9FEFA0E0BF
:10131000B0E003E010E020E030E008C08FEF9FEF86
:10132000AFEFB0E004E010E020E030E0F101E95A76
:10133000FF4F40815181628173813496C080D1809A
:10134000E280F3804C195D096E097F094823592317
:101350006A237B23F101C28CD38CE48CF58C2601AB
:101360003701441A550A660A770A40165106620682
:101370007306BCF1E15BFF4F408151816281738153
:1013800034960081118122813381401B510B620B05
:10139000730B84239523A623B723F101468D578D24
:1013A00060E070E084179507A607B70738F0C10121
:1013B0000E941E1D8B7F892B09F046C9F10187A968
:1013C00090ADA1ADB2AD892B8A2B8B2B81F4D101CD
:1013D0008C9187FFECC2F101E658FF4F80818111AB
:1013E000E6C2C1010E94F41A8430910511F56F968E
:1013F0008CAD9DADAEADBFAD6F97F10145A556A5C6
:1014000067A570A92C013D01441A550A660A770A9E
:10141000B301A201C757DF4F688079808A809B8023
:10142000C958D04064167506860697060CF40CC998
:1014300016C0CF57DF4F08811981C158D0400F5FC8
:101440001F4FCF57DF4F19830883C158D040892BD6
:1014500009F0FAC80032110509F05CC9C8CFF101E2
:10146000208120FD0DC0E75BFF4F208131812430BA
:10147000310509F0A1C746E950E060E070E004C022
:1014800040E157E260E070E0F10101A912A923A94F
:1014900034A9801B910BA20BB30B481759076A079D
:1014A0007B070CF089C787A990ADA1ADB2AD892BA0
:1014B0008A2B8B2B09F080C7C1010E941E1D8B7FD8
:1014C000892B09F0C1C878C7F10180A191A1892BAE
:1014D00031F011A210A2E75BFF4F1182108204E6E7
:1014E00010E0012B09F461C0D1018C9182FF5DC035
:1014F000810103591F4FF801E080F18090968D9192
:101500009C919197892B39F091961C921E929097FD
:10151000B49711821082F101ED58FF4F11821082B1
:10152000C1010E94441AF101EF58FF4F808191815F
:101530003297009741F020813181DC01A159BF4FE2
:101540002D933C930AC0D8014D915C91208131814B
:10155000DA0115963C932E93149720813181211541
:10156000310531F0F901EF58FF4F9183808305C0B9
:10157000D801ED91FC9197838683C1010E94A31944
:10158000F101E458FF4F10814DE750E060E070E05A
:10159000C1010E94151C112341F02DE730E040E00D
:1015A00050E0B101C7010E945519CD56DF4F288088
:1015B000C359D040CC56DF4F3880C459D0400C942A
:1015C0004201DC01CB016CCB46815781608571857E
:1015D0004C195D096E097F0977FDE6C1A596EEAD50
:1015E000FFADA597D80114968D919C9115972C016C
:1015F0004C0C5D1C4201840E951EAD969FAE8EAEC6
:10160000AD97AA969FACAA9791FE0EC05F01A60C5B
:10161000B71CE596BFAEAEAEE597C201292D21708D
:10162000E0962FAFE0973CC09201260D371DAD9696
:101630008EAD9FADAD978217930720F0A30160E0B8
:1016400070E004C0052E000C660B770BAA966FACF9
:10165000AA97D2014A015B0160FE11C021E0821A03
:101660009108A108B1083FEF83169306A306B306BD
:1016700009F4FFCD81919C91890F8D93EFCF81E08B
:10168000881A9108A108B1089FEF89169906A90642
:10169000B90609F4EECD81918D93F1CF840F951F9A
:1016A000E5964EAD5FADE597E417F50708F0E4CD9C
:1016B000AD966EAD7FADAD978617970708F0DCCD80
:1016C0009F012F5F3F4F4081642F70E0F901E60FCB
:1016D000F71FE596AEADBFADE597AE17BF0708F4AF
:1016E00063C1680F791FAD96EEADFFADAD97E617FC
:1016F000F70720F050E060E070E00AC0AD964EAD14
:101700005FADAD97481B590B052E000C660B770B90
:10171000E096FFADE097EB963FAF2EAFEB97F11160
:1017200004C0DC014A015B0121C0FC014A015B01EC
:10173000B1E08B1A9108A108B108AFEF8A169A069A
:10174000AA06BA0669F0EB96AEADBFADEB977D90F9
:10175000EB96BFAFAEAFEB976080760C7192E8CF9F
:10176000D901A40FB51F840F951F1BC0F1E08F1A7C
:101770009108A108B108EFEF8E169E06AE06BE06D0
:1017800059F0EB96EEADFFADEB977190EB96FFAF96
:10179000EEAFEB977D92EACF840F951FD901A40F8E
:1017A000B51FE5966EAC7FACE597A615B70508F0BA
:1017B00063CDAD968EAC9FACAD978815990508F0BA
:1017C0005BCDFD0131964C919C01240F311D821699
:1017D000930620F050E060E070E00AC0AD964EAD98
:1017E0005FADAD97481B590B052E000C660B770BB0
:1017F000E0969FACE097911051CFDC014A015B016C
:1018000021E0821A9108A108B1083FEF83169306E0
:10181000A306B30609F442CF1D92F2CF8C0D9D1D95
:10182000AE1DBF1D0197A109B109F801238921113E
:101830000BC0C48AD58AE68AF78A808F918FA28FDF
:10184000B38F81E0838B1CC0F80144895589668978
:101850007789C416D506E606F70624F4C48AD58A25
:10186000E68AF78AF801408D518D628D738D481795
:1018700059076A077B0724F4808F918FA28FB38F5B
:10188000AA964FACAA9744FE08CDD80153968C91E6
:101890005397882309F401CD12968D919C9113974B
:1018A000009709F4FACC14966D917C911597549693
:1018B000CD90DD90ED90FC90579758968D909D902F
:1018C000AD90BC905B978C149D04AE04BF0424F1D2
:1018D000FC01EC0DFD1D3081FB01EC0DFD1D208197
:1018E000321310C0BFEFCB1ADB0AEB0AFB0AEBCFB7
:1018F000E1E08E1A9108A108B1088C149D04AE0491
:10190000BF0454F0FC01E80DF91D3081FB01E80D26
:10191000F91D2081321761F3D80153961C928C1463
:101920009D04AE04BF040CF4B8CC240135014C185E
:101930005D086E087F08A30192012F5F3F4F4F4F54
:101940005F4F6C0D7D1D8C0D9D1D0E94091EF801C1
:1019500082898823E9F082859385A485B585C81698
:10196000D906EA06FB0624F4C286D386E486F58609
:10197000F80186859785A089B18988159905AA05FA
:10198000BB050CF08ACC86869786A08AB18A85CC66
:10199000F801C286D386E486F58686869786A08A75
:1019A000B18A81E0828B79CC04E610E078CCF10139
:1019B000E758FF4F808181119EC0E996EEADFFADE3
:1019C000E99760807180D101D5966D917C91D69711
:1019D000C12CD12C760100E010E09801AE014F5FE0
:1019E0005F4FC1010E942A1CF101A5A8B6A88D85F0
:1019F0009E85A80EB91EC5010196A1969FAF8EAF18
:101A0000A19782E0D5018C93A4961FAEA497A196CE
:101A10008EAC9FACA197C4010196A1969FAF8EAFEB
:101A2000A197F40110822301F4E14F0E511CD30160
:101A30005096CD90DD90ED90FC905397BE01615A89
:101A40007F4FC30108960E947613B8E2CB16B3E22B
:101A5000DB06E104F1041CF4B601C70104C060E038
:101A600070E080E090E020E4C22EFE01ED59FF4FCF
:101A70007F0100E29F01AE01415A5F4F0E94361381
:101A8000BE01615A7F4FC2010E947613BE01615AA6
:101A90007F4F8BEC91E00E947613D1012D913C9108
:101AA00027FF07C0A4968FADA4978061A4968FAF3F
:101AB000A49731FF07C0A4968FADA4978860A49621
:101AC0008FAFA497A4968FADA497F4018083A196BD
:101AD0002EAD3FADA197A501BE016F5F7F4FC10144
:101AE0000E94AE13892B09F07CCC81E0F101E7580C
:101AF000FF4F808376CCF101E658FF4F8081882329
:101B000009F46FCC81010B591F4F7101FBE6EF0EF9
:101B1000F11CF101808187FF08C0ED58FF4FA080C4
:101B2000B180A114B104A1F05DC3D801ED91FC9185
:101B3000309719F0A78CB0A007C0D701ED91FC91A8
:101B4000309731F0A48CB58CA114B10409F037C4DE
:101B50007101F3E6EF0EF11CD7010D911C910115F7
:101B6000110551F4EF96EEADFFADEF9700811181B5
:101B70000115110509F435CCAB961FAF0EAFAB972D
:101B8000AB96AEADBFADAB9754962C9154978D915B
:101B90009C91211138C0892BA1F0AB96AEADBFADA1
:101BA000AB9712968C911297882359F0CD010E9421
:101BB000C914892B31F0AB96EEADFFADAB97128215
:101BC00024C0AB96AEADBFADAB9797960D90BC91D0
:101BD000A02DAB96BFAFAEAFAB97AB2B59F4EF9642
:101BE000EEADFFADEF970190F081E02DAB96FFAF2A
:101BF000EEAFAB97AB964EAC5FACAB97041515054B
:101C000009F0BECFEECB009731F2AB96EEADFFAD53
:101C1000AB9787A190A5D7018D939C934788508C53
:101C2000618C728CAF964CAE5DAE6EAE7FAEAF97F0
:101C300000811181012E000C220B330BF10165A9EB
:101C400076A973016201AE014F5F5F4FC1010E942F
:101C50002A1CAB96AEADBFADAB971E960D90BC9156
:101C6000A02DE596BFAFAEAFE5974D855E856F853C
:101C70007889F10182889388A488B5882401350188
:101C8000441A550A660A770A85A996A94C01840E5A
:101C9000951EE7969FAE8EAEE79713AE14AE15AEC7
:101CA00016AEE596EEADFFADE597AB96AEADBFAD2A
:101CB000AB97EF2BA9F45F96ED91FC9190978684FA
:101CC0009784E5969FAE8EAEE597AF964CAD5DAD31
:101CD0006EAD7FADAF9701E0E0960FAFE0977BC1AF
:101CE00056968C91811105C0ED81FE8180818160C5
:101CF0008083AB96EEADFFADAB97838D948DA58DB4
:101D0000B68DAF968CAC9DACAEACBFACAF9788191E
:101D10009909AA09BB0983309105A105B1050CF405
:101D200051C1E796AEACBFACE797A40CB51CEB96DF
:101D3000BFAEAEAEEB97E5960EAD1FADE597080DC5
:101D4000191DED961FAF0EAFED979C01AD012F5FF2
:101D50003F4F4F4F5F4FCB56DF4F288339834A8326
:101D60005B83C559D040E7962EAD3FADE797CB5684
:101D7000DF4F88809980AA80BB80C559D040B501CB
:101D8000A4014F3F51056105710529F024F0812C14
:101D9000912C54018A94C158DF4F19830883CF577F
:101DA000D040F80140E050E0BA01D501C4010197EC
:101DB000A109B109CB57DF4F88839983AA83BB83DD
:101DC000C558D040E196FFAFEEAFE1976F019FEFAE
:101DD000C91AD90AF080F11037C0EE24E394F12C2F
:101DE000CB57DF4F88819981AA81BB81C558D040EC
:101DF000481759076A077B0714F0E12CF12CEE0E07
:101E0000FF1ED701FC90F1101FC0CB56DF4F88801A
:101E10009980AA80BB80C559D040841A950AA60A29
:101E2000B70A7A01D901A40FB51FEB968EAD9FAD0D
:101E3000EB97A817B90708F091C089010F5F1F4FF2
:101E4000D9014C9398010BC0481559056A057B05CB
:101E5000E4F64F5F5F4F6F4F7F4FF601B3CF4150B6
:101E600051096109710988F0C158DF4FA881B98112
:101E7000CF57D0408D91C158DF4FB983A883CF573A
:101E8000D040D9018D939D01EACFA8014E0D5F1D71
:101E900081149104A104B10409F465C0CB57DF4F4C
:101EA00088829982AA82BB82C558D0400FEF8016E3
:101EB0009104A104B10469F064F06FEF70E080E078
:101EC00090E0CB57DF4F688379838A839B83C55823
:101ED000D040C12CD12C76018F013196D8012C91A4
:101EE0002223B1F0C501B4016C197D098E099F0947
:101EF000CB56DF4F688379838A839B83C559D04053
:101F0000EB968EAD9FADEB9748175907A0F02BC00D
:101F1000CB57DF4F688179818A819B81C558D0403A
:101F2000C616D706E806F906ECF67FEFC71AD70AF9
:101F3000E70AF70AD1CF9A012F5F3F4FDA01CC921F
:101F4000CB56DF4F88809980AA80BB80C559D0408E
:101F5000181419041A041B040CF409CFE1961FAFDE
:101F60000EAFE197A901CA01E796AEACBFACE79707
:101F70008A199B09092E000CAA0BBB0BE1962EAD0A
:101F80003FADE197ED960EAD1FADED97201B310BE8
:101F9000A901330F660B770B84179507A607B707C0
:101FA0008CF4B7FD1CC0E1964EAD5FADE197E596B0
:101FB0002EAD3FADE597421B530B052E000C660B73
:101FC000770B13C0AF964CAD5DAD6EAD7FADAF97E7
:101FD000E0961FAEE0978FEF9FEFDC0109C0AF9650
:101FE0004CAD5DAD6EAD7FADAF97E0961FAEE097A7
:101FF000AB96EEADFFADAB97C38CD48CE58CF68C75
:10200000AF968CAC9DACAEACBFACAF97C818D9083E
:10201000EA08FB080FEFC01AD00AE00AF00A5301E1
:102020004201C414D504E604F70414F44601570130
:10203000B7FD03C06C017D0102C0750164014D84D0
:102040005E846F847888C40CD51CE61CF71CF101F3
:10205000E95AFF4F4080518062807380349600813E
:10206000118122813381401A510A620A730A930155
:102070008201F101708070FC06C044244A94542C03
:10208000612C712C05C044244A94542C642C712C6E
:102090004022512262227322F10106891789208D84
:1020A000318D04191509260937090C151D052E0552
:1020B0003F050CF496C9AB96EEADFFADAB97478BE1
:1020C000508F618F728FF101E05CFF4F308141E0F2
:1020D000430F4083383C10F031E03083B7FF30C00D
:1020E000E5966EAD7FADE597AD964EAC5FACAD9726
:1020F000640D751DE0965FACE097552041F0A4019A
:10210000E7968EAD9FADE7970E94BF2B08C0A50153
:102110009401E7968EAD9FADE7970E94091EAB969E
:10212000EEADFFADAB978789908DA18DB28D880EF6
:10213000991EAA1EBB1E878A908EA18EB28E05C0E4
:10214000ED81FE81808182608083F101C7AAD0AEDB
:10215000E1AEF2AE8D859E85AF85B889C81AD90AE1
:10216000EA0AFB0AE985FA85C082EB85FC8530978F
:1021700009F0D082AB96AEADBFADAB9757964D91FF
:102180005D916D917C915A975B968D919D910D908B
:10219000BC91A02D84179507A607B70754F4AB96FA
:1021A000EEADFFADAB97148AED81FE818081806139
:1021B000808389819A81892B09F413C9D101D7962B
:1021C0004D915D916D917C91DA97D5968D919C9111
:1021D000D6970E947325E981FA818083EB81FC8187
:1021E0009083FFC8F5010489158926893789D101B3
:1021F000D5966D917C91D697C12CD12C7601AE01EC
:102200004F5F5F4FC1010E942A1CF10145A856A8EB
:102210008D859E85480E591EC2010196A1969FAFDD
:102220008EAFA19781E0D2018C93A1968EAC9FAC2A
:10223000A197C4010196A1969FAF8EAFA197F4011B
:102240001082E996AEADBFADE9976D907C90F30139
:1022500060897189828993898301085F1F4FAB96DA
:102260001FAF0EAFAB9793012C5E3F4FAD963FAFC4
:102270002EAFAD97693233E2730781059105A0F067
:10228000F101EB58FF4F00811181228133816017EA
:1022900071078207930741F4F501248520FF04C0EC
:1022A00067E273E280E090E014E0C12E740102E086
:1022B0009401AE01415A5F4F0E943613D5015096EA
:1022C0006D917D918D919C91539700E1C02E08E016
:1022D0009401AE01415A5F4F0E943613F5013285D9
:1022E0002385832F922FA196EEADFFADA197AF016D
:1022F0004F5F5F4FA1965FAF4EAFA19730838F3F87
:10230000910581F078F0A196EEADFFADA197CF01D8
:102310000196A1969FAF8EAFA1972083D4018C9197
:1023200080628C93F30180858823B1F0BE01615AED
:102330007F4FAB968EAD9FADAB970E947613BE01DB
:10234000615A7F4FAD968EAD9FADAD970E947613CB
:10235000D4018C9180648C93F501808D882359F091
:10236000BE01615A7F4FC50148960E947613D40181
:102370008C9180688C93A1962EAD3FADA197A20160
:10238000BE016F5F7F4FC1010E94AE13892B09F020
:1023900028C8F101808187FF0AC0D5019E968D91E2
:1023A0009C919F97ED58FF4F918380831AC8B50188
:1023B000C1010E942F1915C800E010E092C8D50194
:1023C0001A968D919C911B9791FF0CCFB501C1017D
:1023D0000E942F199ECBC856DF4F0FB6F894DEBF70
:1023E0000FBECDBFDF91CF911F910F91FF90EF9066
:1023F000DF90CF90BF90AF909F908F907F906F9025
:102400005F904F903F902F900895089580E090E066
:102410000895FC01538D448D252F30E0842F90E0EA
:10242000821B930B541710F0CF96089501970895CF
:10243000FC01918D828D981759F0828DDF01A80FD4
:10244000B11D5D968C91928D9F5F928F90E0089563
:102450008FEF9FEF0895FC01918D828D981731F0D9
:10246000828DE80FF11D858D90E008958FEF9FEF2D
:102470000895FC01918D828D981B892F90E008951D
:1024800080E090E0892B29F00E94C21D81110C94FC
:10249000000008951F920F920FB60F9211242F93F0
:1024A0008F939F93EF93FF93E0911906F0911A0693
:1024B0008081E0911F06F091200682FD11C090817D
:1024C000809122068F5F20912306821751F0E091C0
:1024D0002206F0E0E75FF94F958F8093220601C056
:1024E0008081FF91EF919F918F912F910F900FBE5F
:1024F0000F901F901895FC01848DDF01A80FB11D6E
:10250000A35EBE4F2C91848D90E001968F73992726
:10251000848FA689B7892C93A089B1898C91837007
:1025200080648C93938D848D981306C00288F38900
:10253000E02D80818F7D80830895EF92FF920F932D
:102540001F93CF93DF93EC0181E0888F9B8D8C8D5F
:10255000981305C0E889F989808185FD26C0F62E8B
:102560000B8D10E00F5F1F4F0F731127E02E8C8D26
:10257000E8120CC00FB607FCFACFE889F989808110
:1025800085FFF5CFCE010E947B12F1CF8B8DFE012E
:10259000E80FF11DE35EFE4FF0829FB7F8940B8FBA
:1025A000EA89FB89808180620AC09FB7F894EE892E
:1025B000FF896083E889F9898081837080648083E2
:1025C0009FBF81E090E0DF91CF911F910F91FF902D
:1025D000EF900895CF93DF93EC01888D8823C9F0A5
:1025E000EA89FB89808185FD05C0A889B9898C911C
:1025F00086FD0FC00FB607FCF5CF808185FFF2CFB7
:10260000A889B9898C9185FFEDCFCE010E947B12FC
:10261000E7CFDF91CF910895DC011396ED91FC9106
:102620001497369615962C91022E000C330BC90187
:10263000029797FD0196959587952FEF280F18160D
:102640008CF48081082E000C990B8617970739F4BB
:1026500061817281072E000C880B990B08953396C7
:10266000822FEBCF60E070E0CB0108958F929F92B4
:10267000AF92BF92CF92EF92FF920F93CF93DF93DF
:10268000E701DA01ED91FC916083872E982EA92E47
:10269000BB2481149104A104B10419F4DF01119643
:1026A00017C081824C01AA24BB2481149104A10487
:1026B000B10441F08282DF01149693838881C82A95
:1026C000C88206C0DF011296F9018081082B0083C1
:1026D000FA01B183A083DF91CF910F91FF90EF902A
:1026E000CF90BF90AF909F908F900895CF93DF933E
:1026F000DB01009769F0FC0141E050E060E070E030
:102700002191222349F04F5F5F4F6F4F7F4FF8CFEA
:1027100041E050E060E070E0415051096109710909
:10272000ED91FC9111979F012F5F3F4F11963C93C4
:102730002E934083FC01415051096109710958F001
:10274000CD91DC911197CE01019611969C938E93B9
:1027500081918883F0CFDF91CF9108954F925F925E
:102760006F927F928F929F92AF92BF92CF92DF92A1
:10277000EF92FF920F931F93CF93DF9300D000D07F
:10278000CDB7DEB7FC018B01241B350B4901330F9C
:10279000AA08BB08DB011C96CD90DD90ED90FC9063
:1027A0001F97C80CD91CEA1CFB1C895A9F4F3F017C
:1027B000BBE56B0E711CDC014D915D916D917C91BF
:1027C000D3014D905D906D907C9044195509660938
:1027D0007709808180FD06C044244A94542C612CE2
:1027E000712C05C044244A94542C642C712CDB01B8
:1027F000CA0184219521A621B72146885788608C7B
:10280000718C481A590A6A0A7B0A4C145D046E04DA
:102810007F040CF445C0D80118964D915C9119972E
:10282000DA012C93D8011A962D913C911B97211512
:10283000310511F0D9019C92C7AAD0AEE1AEF2AE3B
:10284000D80114962D913C911597D9018C918062F5
:102850008C939F01205C3F4FD9018C91883C10F4F0
:102860008F5F02C081E0D9018C93D8018D919C913A
:10287000892BC9F01A83098347A950AD61AD72ADA8
:1028800085A996A90E947325A981BA81ED91FC9131
:10289000119780831296ED91FC911397908303C05A
:1028A00084E090E002C080E090E00F900F900F90E5
:1028B0000F90DF91CF911F910F91FF90EF90DF90DC
:1028C000CF90BF90AF909F908F907F906F905F90D0
:1028D0004F900895DC01862FED91FC911197608156
:1028E000811107C0411105C0319670E080E090E091
:1028F0000CC060817181411104C080E090E032968B
:1029000004C06191719181919191ED93FC9308952F
:10291000CF92DF92EF92FF920F931F93CF93DF93AB
:10292000EC016A017B01F901A081B181BD016F5FFA
:102930007F4F718360839C91292F30E040E050E00D
:102940002C153D054E055F05CCF48F017E01C92F86
:10295000D0E0121613061406150654F4C7010E949F
:10296000091EF801808191818C0F9D1F91838083C6
:10297000CE0DDF1D188280E090E002C084E690E07A
:10298000DF91CF911F910F91FF90EF90DF90CF904B
:1029900008954F925F926F927F928F929F92AF9223
:1029A000BF92CF92DF92EF92FF920F931F93CF933C
:1029B000DF93EC01892B09F4ABC08B81811104C03A
:1029C0009D89992309F4A1C09C89992319F081114B
:1029D000A2C09BC0EF8DF8A106851785AC84BD848D
:1029E0008E859F851B822D892223B9F0208931890C
:1029F0004289538969017A0161E0C61AD108E10868
:102A0000F108009719F0B8010E94091E1D8A81E0A3
:102A10008E8B40E050E0BA0158C0FC81ED813E81D0
:102A20002F81488459846A847B844F2F5E2F632FC3
:102A3000722F73016201A114B10409F445C0441658
:102A40005506660677060CF460C0F501E40FF51F25
:102A50003081F801E40FF51F2081321310C04F5F61
:102A60005F4F6F4F7F4FEBCFE1E0CE1AD108E10807
:102A7000F108C416D506E606F7060CF446C0F501C3
:102A8000EC0DFD1D3081F801EC0DFD1D208132178C
:102A900059F32A013B014C01840C951C9801240D2B
:102AA000351DD501A40DB51DF90120813C91231BD5
:102AB000F4012083FFEF4F1A5F0A6F0A7F0AC414E4
:102AC000D504E604F7043CF71E8A4F8B588F698FB4
:102AD0007A8FCB8EDC8EED8EFE8E81E08C8BA114F6
:102AE000B10499F0C41AD50AE60AF70A2FEFC21A00
:102AF000D20AE20AF20A040F151FC501840F951FBE
:102B0000A7019601B8010E94091E80E090E005C06F
:102B100084E690E002C084E090E0DF91CF911F91C5
:102B20000F91FF90EF90DF90CF90BF90AF909F906C
:102B30008F907F906F905F904F900895CF92DF922B
:102B4000EF92FF920F931F93CF93DF93FC01A78D1A
:102B5000B0A11E968D919C911F97A485B585009775
:102B6000E1F11097D1F168017901C41AD50AE60A9A
:102B7000F70ACFEFCC16D104E104F10409F06CF5AB
:102B8000041715072607370744F1EC01C40FD51FBA
:102B9000F880ED01C40FD51FC881FC1219C0401781
:102BA00051076207730709F440C04F5F5F4F6F4FD3
:102BB0007F4FE6CFEC01C00FD11FF880ED01C00FB1
:102BC000D11FC881FC1209C0015011092109310926
:102BD00040175107620773076CF3838181110BC0A3
:102BE00044835583668377830087118722873387E1
:102BF00081E083831AC084819581A681B7814817BB
:102C000059076A077B0724F44483558366837783D7
:102C100080859185A285B38580179107A207B307A8
:102C200024F40087118722873387DF91CF911F918A
:102C30000F91FF90EF90DF90CF900895CF92DF92A9
:102C4000EF92FF920F931F93CF93DF9300D000D0AA
:102C50001F92CDB7DEB7009709F442C07B018C010B
:102C6000BE016F5F7F4F0E944021E114F10419F013
:102C70008981F7018083F80182818F718A508230C7
:102C800050F5CA80DB80EC80FD8020E030E0A901B7
:102C9000C701B6010E94752E87FD0BC020E030E011
:102CA00040E05FE3C701B6010E94612D0E943F2E04
:102CB0001AC0A701960160E070E080E09FE30E94E7
:102CC000602D0E943F2E90958095709561957F4F65
:102CD0008F4F9F4F08C06A817B818C819D8103C08B
:102CE00060E070E0CB010F900F900F900F900F906D
:102CF000DF91CF911F910F91FF90EF90DF90CF90D8
:102D000008952F923F924F925F926F927F928F928F
:102D10009F92AF92BF92CF92DF92EF92FF920F936A
:102D20001F93CF93DF9300D000D01F92CDB7DEB7B3
:102D3000E1FEF4C0DC01EC91E0FFF0C014968D914F
:102D40009C911597E091DB05F091DC058E179F07AC
:102D500059F0E091D105F091D2058E179F0709F047
:102D6000DDC0E3E4F1E002C0EEE1F1E02801390169
:102D70004A835B836C837D83E780F0848701045EF4
:102D80001F4F0E151F0509F4C9C0D7011296EC910B
:102D90001297E5FFB7C01596CD90DC901697C11439
:102DA000D10409F4AFC06C91862E660F9908AA0869
:102DB000BB08481459046A047B040CF4A3C0EF71E7
:102DC00011966C91062E000C770B880B990B16163A
:102DD000170618061906ACF5E13019F0EE3061F16E
:102DE00018C0613071058105910591F1DC01CB01BD
:102DF0000796A11DB11D23E0B595A79597958795D9
:102E00002A95D1F7BC01CD0117C061E070E080E0E8
:102E100090E0E13164F40E2E000CFF0BE654FE4FFF
:102E20002081022E000C330B440B550B03C020E015
:102E300030E0A9010E944A2D6F5F7F4F8F4F9F4F57
:102E400007C0E13009F062C061E070E080E090E02E
:102E5000DC01CB01880D991DAA1DBB1D2A813B8178
:102E60004C815D81281739074A075B070CF04AC07F
:102E700040E050E0BE016F5F7F4FC7010E941E1609
:102E8000962EA72E282EB92E898181FF3BC0D60110
:102E900012962C91129727FD2CC08C91813049F508
:102EA000022E000C330BF901E552FE4F8491F9011B
:102EB000E953FE4F8490F901ED54FE4F34903320D6
:102EC000C1F081110E94EB1EE32DF0E0EE0FFF1F19
:102ED000EB56FE4FA591B4919FB7F894911005C0A1
:102EE0008C91E82DE095E82302C0EC91E829EC9361
:102EF0009FBFD6011396ED91FC9114979082A18209
:102F00002282B382B7E0EB0EF11C3BCFEE3009F02A
:102F10007CCF61E070E080E090E08ECF0F900F906A
:102F20000F900F900F90DF91CF911F910F91FF9015
:102F3000EF90DF90CF90BF90AF909F908F907F9059
:102F40006F905F904F903F902F900895EF92FF9277
:102F50000F931F93CF93DF9300D000D01F92CDB774
:102F6000DEB7FC01892B19F18901CB01BA017F0180
:102F700022812F712A50223038F40E94CA2B6A8392
:102F80007B838C839D8304C06A837B838C839D8336
:102F9000802F8F778983A801407855274062BE0132
:102FA0006F5F7F4FC7010E944021898101C080E08F
:102FB0000F900F900F900F900F90DF91CF911F9176
:102FC0000F91FF90EF9008953F924F925F926F9212
:102FD0007F928F929F92AF92BF92CF92DF92EF92A9
:102FE000FF920F931F93CF93DF93CDB7DEB7619717
:102FF0000FB6F894DEBF0FBECDBFDC0119960D9160
:103000001C911A97D8011396ED91FC911497208189
:1030100020FD0DC17C01FC0186810380F481E02D3F
:1030200080FFFAC0348020813181428153812E8714
:103030003F87488B598B64E270E0C7010E940C13F4
:103040006A877B878C879D8765E270E0C7010E9455
:103050000C132B013C0166E270E0C7010E940C13C7
:103060004B015C0167E270E0C7010E940C136E83A4
:103070007F838887998768E270E0C7010E940C13FC
:103080006B017C018A859B85AC85BD85481A590AF0
:103090006A0A7B0A49F06E817F8188859985681963
:1030A00079098A099B0939F46E857F858889998910
:1030B0000E94CA2B6BC00E94CA2B6E837F838887B5
:1030C0009987C301B2010E94CA2B9B01AC016E819A
:1030D0007F81888599850E94CD2D2B013C016E85CD
:1030E0007F85888999892A853B854C855D85621B0A
:1030F000730B840B950B0E94CA2B9B01AC01C3017F
:10310000B2010E94292C2B013C01C501B4010E948F
:10311000CA2B9B01AC01C301B2010E94612D460183
:103120005701181419041A041B0484F42DEC3CEC08
:103130004CEC5DE32B013C01C301B2010E94292C40
:1031400031E0831A9108A108B108EBCF460157017D
:10315000F7FE03C0812C912C5401C818D908EA0845
:10316000FB08C114D104E104F10481F020E030E057
:1031700040E251E44B015C01C501B4010E94292CDD
:103180004FEFC41AD40AE40AF40AEBCF6B017C01B6
:103190000115110509F44BC0D80112968C918F715D
:1031A0008A50823038F4CB01D7018A839B83AC8369
:1031B000BD8328C020E030E0A901C7010E94752E20
:1031C00087FD0BC020E030E040E05FE3B601C701BF
:1031D0000E94612D0E943F2E11C09601A70160E060
:1031E00070E080E09FE30E94602D0E943F2E90954A
:1031F0008095709561957F4F8F4F9F4F6A837B833A
:103200008C839D83398240E250E0BE016F5F7F4F27
:10321000C8010E9440210BC02481022E000C330BF8
:103220004081518162817381C8010E94A617619615
:103230000FB6F894DEBF0FBECDBFDF91CF911F91C7
:103240000F91FF90EF90DF90CF90BF90AF909F9045
:103250008F907F906F905F904F903F900895DC012A
:10326000A559BF4FED91FC911197309749F0248DEE
:10327000358D2617370721F424A135A12D933C93D2
:10328000FC01EB59FF4FA081B181109769F05F9667
:103290008D919C9190976817790731F497968D914D
:1032A0009C919897918380830895CF92DF92EF92BB
:1032B000FF92CF93DF93EC01FB013097E9F18CA5EE
:1032C0009DA5892B79F48091AA079091AB079183F2
:1032D00080837093AB076093AA0722833383448370
:1032E00055832AC0248335834683578313821282F1
:1032F000118210829EA98FA9A92FB82F1097C1F013
:103300001496CD90DD90ED90FC9017972C153D050F
:103310004E055F0541F48D919C91119791838083B7
:10332000ED93FC9309C012960D90BC91A02DE6CFB1
:1033300092838383FFABEEABDF91CF91FF90EF9051
:10334000DF90CF900895EF92FF920F931F93CF934A
:10335000DF93EC01FC01E359FF4FE080F1808FAD7A
:10336000882361F02A893B894C895D896DA97EA9F2
:10337000C7010E9455191FAE1EAA1DAA8E01095B26
:103380001F4FF8018081882379F02A893B894C8975
:103390005D89CF5BDF4F68817981C7010E94551934
:1033A000F801108219821882DF91CF911F910F913D
:1033B000FF90EF9008950F931F93CF93DF93EC014D
:1033C0008AA19BA1FC01E359FF4F00811181329733
:1033D000408151812CA13DA1C417D50711F431833F
:1033E0002083EEA1FFA1309719F035A324A305C0D7
:1033F000DC01A959BF4F2D933C93ACA1BDA11097FF
:1034000029F09796FC93EE93969705C0DC01A75997
:10341000BF4FED93FC93E8A1F9A18E8D9F8D30975E
:1034200019F0978F868F06C0AC8DBD8D99969C93B1
:103430008E939897AE8DBF8D109729F09196FC933F
:10344000EE93909706C0AC8DBD8D9B96FC93EE934A
:103450009A978E819F81A885B9859C01AD01220F25
:10346000331F441F551F6A817B81C8010E94551973
:1034700028E230E040E050E0BE01C801DF91CF918A
:103480001F910F910C945519CF92DF92EF92FF92FA
:103490000F931F93CF93DF938C016C018FE5C80EC0
:1034A000D11CF601C081D181209709F479C08DA18A
:1034B0009EA1FC01E359FF4FE080F180BC016D59F2
:1034C0007F4FFB0120813181C217D30711F4118294
:1034D0001082DC01AB59BF4F4D915C9111972FA128
:1034E00038A5C417D50711F42D933C93A9A5BAA507
:1034F000109729F098963C932E93979706C0AC01AD
:10350000415A5F4FFA01318320832FA138A521153D
:10351000310521F0F901B2A7A1A705C08F599F4F2E
:10352000FC01B183A083ABA1BCA189A19AA1109792
:1035300029F092969C938E93919705C02F8D38A178
:10354000F90195A384A389A19AA1009721F0FC0118
:10355000B4A3A3A305C08F8D98A1FC01B7A3A6A314
:10356000FB0180819181C817D90711F41182108263
:1035700088899989AA89BB899C01AD01220F331FD3
:10358000441F551F6C857D85C7010E9455192BE28C
:1035900030E040E050E0BE01C7010E94551981CFE4
:1035A000E801C959DF4F88819981009719F00E947D
:1035B000DB19F9CFDF91CF911F910F91FF90EF9021
:1035C000DF90CF9008952FB7F89440910506509161
:1035D000060660910706709108062FBFFC01408324
:1035E00051836283738308954F925F926F927F92AB
:1035F0008F929F92AF92BF92CF92DF92EF92FF9203
:10360000CF93DF93EC014BAC5CAC6DAC7EAC8FA880
:1036100098ACA9ACBAAC84189508A608B7081814D9
:1036200019041A041B040CF066C088A199A1892B07
:10363000D9F1EDA8FEA889E096E00E9409126C017C
:10364000092E000CAA0BBB0B88169906AA06BB060E
:103650000CF46401B701640D751DA60189E096E0C4
:103660000E94981D0D2C000CEE08FF08C114D10417
:10367000E104F104F1F0CE01C1960E94E31AFE01CB
:10368000E95AFF4F80819181A281B3818C0D9D1DEC
:10369000AE1DBF1D80839183A283B3838C149D04D0
:1036A000AE04BF0441F005C0C12CD12C760184E6E4
:1036B00003C084E001C080E090E04BAD5CAD6DAD37
:1036C0007EADC40ED51EE61EF71ECBAEDCAEEDAE53
:1036D000FEAE4FA958AD69AD7AADC416D506E60663
:1036E000F7065CF01FAA18AE19AE1AAE1BAE1CAEE0
:1036F0001DAE1EAE02C084E090E0DF91CF91FF903E
:10370000EF90DF90CF90BF90AF909F908F907F9081
:103710006F905F904F9008950F931F93CF93DF9317
:1037200000D000D0CDB7DEB78C01FC01E85BFF4FC5
:103730001082359710821182128213823397108281
:10374000FC0113AE14AE15AE16AE17AA10AE11AE34
:1037500012AEE758FF4F108231961082BB9710824D
:10376000118212821382349680E090EAA0EAB0E0DF
:1037700080839183A283B383389610821182128250
:10378000138234971082118212821382CE01019625
:103790000E94E31A89819A81AB81BC81F80185A7D7
:1037A00096A7A7A7B0AB81AB92ABA3ABB4ABE15AE2
:1037B000FF4F0190F081E02D81E0309779F0148A7D
:1037C000138E148E158E168E178A108E118E128EF1
:1037D000858B868B07A0F0A5E02DEFCFF801E95986
:1037E000FF4F0190F081E02D3097B1F016861786DB
:1037F000108A118A1286138614861586128A138AF5
:10380000108E118E128E138E148A158A168A178ABC
:1038100004A0F5A1E02DE8CF0F900F900F900F902E
:10382000DF91CF911F910F9108950F931F930097F0
:1038300071F08A019B01FC01101611061206130695
:1038400034F411920150110921093109F5CF1F916A
:103850000F9108952F923F924F925F926F927F92B5
:103860008F929F92AF92BF92CF92DF92EF92FF9290
:103870000F931F93CF93DF93CDB7DEB727970FB684
:10388000F894DEBF0FBECDBF4C011B015A012801C9
:103890003901CC82DD82EE82FF821B8240E150E062
:1038A00060E070E0C5010E94151CD4012D913C918F
:1038B000C10101969A838983F401E05CFF4F408146
:1038C000F1014083A9014170552720FD0EC0D501AB
:1038D00011969C938E931182019613969C938E93CE
:1038E000129701969A8389831282E981FA81D50120
:1038F0001596FC93EE931497CF0101969A838983D2
:103900001082E981FA811996FC93EE931897CF0102
:1039100001969A8389831082452B59F0E981FA81B7
:103920001B96FC93EE931A97CF0101969A83898395
:103930001082C301BB2797FDB095AB2F892B8A2B33
:103940008B2B69F42C813D814E815F81CA01BB279D
:1039500097FDB095AB2F892B8A2B8B2B81F08B8118
:1039600080688B83E981FA81D5011796FC93EE93E9
:103970001697CF0101969A83898380E88083F501A9
:10398000E680F78082E0C82E08E09E012D5F3F4F61
:10399000AE014F5F5F4FC301B2010E943613D501E4
:1039A0001696ED90FC901797CC24C39404E09E01EA
:1039B0002D5F3F4FAE014F5F5F4F6C817D818E81E8
:1039C0009F810E943613D5011496ED91FC911597B5
:1039D0008B81808389819A8182199309092E000C39
:1039E000AA0BBB0BF50184879587A687B787279617
:1039F0000FB6F894DEBF0FBECDBFDF91CF911F9100
:103A00000F91FF90EF90DF90CF90BF90AF909F907D
:103A10008F907F906F905F904F903F902F90089580
:103A200089E096E00E943912892B29F089E096E01E
:103A30000E941812F5CF80E090E008950F931F9335
:103A4000CF93DF93EC01EDA9FEA98FEF8083DE0118
:103A5000A15BBF4F2C9111969C91119712968C915E
:103A6000129713963C9121839283488140FF06C0B0
:103A7000838344E050E060E070E004C043E050E045
:103A800060E070E04FAB58AF69AF7AAFFE01ED5A1E
:103A9000FF4F2083918382833383CE010E94F41AE7
:103AA0008C01CE01C1960E94E31AC801DF91CF912B
:103AB0001F910F910895CF93DF9390E0FC01E9539C
:103AC000FE4F2491FC01ED54FE4F8491882361F157
:103AD00090E0880F991FFC01E156FE4FC591D491EB
:103AE000FC01EB56FE4FA591B491611109C09FB73F
:103AF000F8948881209582238883EC912E230BC033
:103B0000623061F49FB7F8948881322F3095832317
:103B10008883EC912E2B2C939FBF06C08FB7F8940F
:103B2000E8812E2B28838FBFDF91CF9108950895D0
:103B3000CF92DF92EF92FF920F931F93CF93DF9379
:103B40006C017A018B01C0E0D0E0CE15DF0581F079
:103B5000D8016D918D01D601ED91FC910190F0811C
:103B6000E02DC6010995892B11F02196EECF7E013B
:103B7000C701DF91CF911F910F91FF90EF90DF90E0
:103B8000CF90089589E096E00E94391221E0892BB8
:103B900009F420E0822F08950E947A2E0097C1F048
:103BA00012161306140615069CF46115710511F41E
:103BB0006BEC71E0FC01DB01215031094109510935
:103BC00011F4108208958D918823D9F38193F4CF55
:103BD0000895009711F48BEC91E06115710511F4D3
:103BE0006BEC71E0DC01FB018D919191891306C0B2
:103BF0008111FACF60E070E0CB01089589172CF0B5
:103C000061E070E080E090E008956FEF7FEFCB011E
:103C100008950F931F930097A1F06115710589F026
:103C2000022F132F9A01FB01DC0110161106120658
:103C300013063CF481918D9301501109210931093A
:103C4000F4CF1F910F9108954F925F926F927F92E0
:103C5000AF92BF92CF92DF92EF92FF920F931F939A
:103C6000CF93DF93CDB7DEB766970FB6F894DEBF7C
:103C70000FBECDBF7C0177FF0FC07095609550954A
:103C800041955F4F6F4F7F4F6C018FEFC81AD80A75
:103C90008DE2F701808301C06C01CE0101965C01C9
:103CA0008C018AE0482E512C612C712C4115510554
:103CB0006105710581F0CB01BA01A30192010E9457
:103CC000E72C942F852F605DF80161938F01A90186
:103CD000692F782FEBCFA016B10671F0D601F8014D
:103CE000AE16BF0619F082918D93FACFB8016A190A
:103CF0007B096C0D7D1D06C0B6016F5F7F4F80E3B1
:103D0000F6018083FB011192BF016E197F09072E16
:103D1000000C880B990B66960FB6F894DEBF0FBEA9
:103D2000CDBFDF91CF911F910F91FF90EF90DF906A
:103D3000CF90BF90AF907F906F905F904F9008951D
:103D40008F929F92AF92BF92CF92DF92EF92FF92AB
:103D50000F931F93CF93DF9300D000D0CDB7DEB782
:103D60006B017C0149015A010E94682B0E94682B5B
:103D7000CE0101960E94E31A89819A81AB81BC81B0
:103D8000BC01CD0190588C149D04AE04BF0491F089
:103D9000950184010C191D092E093F09A9019801FB
:103DA0002F5F3F4F4F4F5F4F0E94192D6C0D7D1DB0
:103DB0008E1D9F1D0F900F900F900F90DF91CF9150
:103DC0001F910F91FF90EF90DF90CF90BF90AF9039
:103DD0009F908F900895833081F028F4813099F07E
:103DE0008230A1F008958730A9F08830B9F084308E
:103DF000D1F4809180008F7D03C0809180008F7707
:103E000080938000089584B58F7702C084B58F7D3C
:103E100084BD08958091B0008F7703C08091B00079
:103E20008F7D8093B00008951F920F920FB60F926E
:103E300011242F933F938F939F93AF93BF938091C0
:103E4000050690910606A0910706B09108063091EC
:103E5000CC0523E0230F2D3720F40196A11DB11DC1
:103E600005C026E8230F0296A11DB11D2093CC05A5
:103E70008093050690930606A0930706B093080664
:103E80008091C8059091C905A091CA05B091CB0554
:103E90000196A11DB11D8093C8059093C905A093FB
:103EA000CA05B093CB05BF91AF919F918F913F9180
:103EB0002F910F900FBE0F901F9018951F920F9289
:103EC0000FB60F9211242F933F934F935F936F93ED
:103ED0007F938F939F93AF93BF93EF93FF93E09163
:103EE0000201F09103010995FF91EF91BF91AF910C
:103EF0009F918F917F916F915F914F913F912F9102
:103F00000F900FBE0F901F9018951F920F920FB633
:103F10000F9211242F933F934F935F936F937F934F
:103F20008F939F93AF93BF93EF93FF93E091000123
:103F3000F09101010995FF91EF91BF91AF919F9190
:103F40008F917F916F915F914F913F912F910F9042
:103F50000FBE0F901F9018951F920F920FB60F92E1
:103F600011242F933F934F935F936F937F938F937E
:103F70009F93AF93BF93EF93FF9389E096E00E94E6
:103F80007B12FF91EF91BF91AF919F918F917F91A4
:103F90006F915F914F913F912F910F900FBE0F90B6
:103FA0001F9018950F931F93CF93DF93009709F4F9
:103FB00056C0FC01EF019191992309F450C087EF9D
:103FC000890F8530B8F321E030E0903211F020E025
:103FD00030E0232B79F79D3221F0F0E09B32A1F401
:103FE00001C0F1E0DE011196ED019D919923B9F137
:103FF00087EF890F8530C0F321E030E0903211F077
:1040000020E030E0232B81F790539A3040F520E0F8
:1040100030E0A901E99180ED8E0F8A30B0F4AAE07A
:10402000B0E00E94062D0E2FEE0F110B220B330B6A
:10403000DC01CB01800F911FA21FB31F9C01AD01BA
:104040002053310941095109E5CFFF2361F066276B
:104050007727CB01621B730B840B950B06C060E0C6
:1040600070E0CB0102C0CA01B901DF91CF911F916D
:104070000F9108952F923F924F925F926F927F928D
:104080008F929F92AF92BF92CF92DF92EF92FF9268
:104090000F931F93CF93DF9300D0CDB7DEB78C0182
:1040A0007B013A0182E089830115110581F0D80175
:1040B00012968C918F71BA01607277278A3019F04D
:1040C0008E3021F106C0672B11F4F701108280E0D9
:1040D000C2C0672B59F0C7010E94D21FAB01BC01BF
:1040E00022E030E0C8010E94A617B5C0BE016F5F94
:1040F0007F4FC8010E941E16AB01BC01E114F10400
:1041000009F4A8C0C7010E94241EA4C0D8011396B8
:10411000ED91FC9114976115710541F0E114F104E2
:1041200051F48BECE82E81E0F82E05C0E114F10487
:1041300071F2D7011C9267FC04C082819381892BA4
:1041400031F2C480D580C114D10409F2F801F081A4
:10415000FA838F2EFF0F9908AA08BB08B7FC18C076
:10416000D80111964C90242D440C330B440B550B65
:1041700014012501220E331E441E551EF6018089AE
:104180009189A289B389281639064A065B0614F07C
:10419000198260C00684F785E02DBA81EB0FF11D0E
:1041A000B7FDFA95CF010196672BC9F122E0208374
:1041B000F70141E050E060E070E02191222329F016
:1041C0004F5F5F4F6F4F7F4FF8CFF8014180042C56
:1041D000000C5508660877084415550566057705EF
:1041E00014F42A013B01A3019201B7010E94091EA8
:1041F000480C591C6A1C7B1CD6019496ED90FC90CF
:104200009597E114F10431F193018201B501A40104
:10421000C7010E949E15F701E1A0F2A0F2CFE08154
:10422000E983D60198966D917C919997672B29F433
:1042300070FC03C06E2F6D7F69832032310541050C
:10424000510524F020E230E040E050E0BC01C7011D
:104250000E94091E89810F900F90DF91CF911F91CD
:104260000F91FF90EF90DF90CF90BF90AF909F9015
:104270008F907F906F905F904F903F902F90089518
:104280002F923F924F925F926F927F928F929F9266
:10429000AF92BF92CF92DF92EF92FF920F931F9354
:1042A000CF93DF93CDB7DEB7A1970FB6F894DEBFFB
:1042B0000FBECDBF5C018B017A011A0120E22222E0
:1042C000332445FD07C045E050E060E070E0C801E0
:1042D0000E94151CA114B10409F42FC1D501139635
:1042E000ED91FC911497309709F427C1E7FC05C0C4
:1042F00082819381892B09F420C1C480D580C114A7
:10430000D10409F41AC1D5011296EC91EF71E9A319
:10431000EE3051F5232899F0F801418152816381F3
:104320007481CE0101960E94241EA701BE016F5F19
:104330007F4FC5010E943A20D8018C93FEC0A7018F
:10434000BE016F5F7F4FC5010E943A20F801808354
:10435000CE0101960E94D21FD80111966D937D93D4
:104360008D939C931497E9C0F5016081862E062EEB
:10437000000C9908AA08BB08F9A1F13071F0F131DD
:1043800064F4EF2FFF0FFF0BE654FE4F2081022E47
:10439000000C330B440B550B03C020E030E0A901A7
:1043A000B7FCCBC024013501420E531E641E751E9E
:1043B000F60180899189A289B389481659066A064F
:1043C0007B060CF0BAC0A685B785A60FB11D67FDA8
:1043D000BA95232809F45EC0F801F08061817281EA
:1043E00083819481672B682B692B19F08F2D816055
:1043F00002C08F2D8E7FF80180838C93F9A16F2FDF
:10440000FF0F770B880B990BFB013397E930F10510
:1044100020F4EC5CFF4F0C945A2DF80181818983C4
:1044200019C0F801818192819A83898313C0F801B0
:10443000618172818381948169837A838B839C8378
:1044400009C0F801618172818381948169837A83D3
:104450008B839C8312161306140615063CF4BE01CA
:104460006F5F7F4FCD0101960E94091ED601949681
:10447000ED90FC909597E114F10409F45EC093016E
:104480008201B501A401C7010E949E15F701E1A0B8
:10449000F2A0F1CF8C91F60160A571A5672B11F404
:1044A000F0FE8D7FF8018083F9A1F13011F4817065
:1044B0001CC012161306140615063CF4BD016F5FEE
:1044C0007F4FCE0101960E94091EF9A18F2FFF0F89
:1044D000990BAA0BBB0BFC013397E930F10520F4D3
:1044E000E35CFF4F0C945A2D8981082E000C990B28
:1044F000AA0BBB0BF80181839283A383B4831DC0F5
:10450000898190E009C089819A81092E000CAA0B4B
:10451000BB0BF0CF89819A81A0E0B0E0EBCF89811D
:104520009A81AB81BC81E6CF89819A81AB81BC81C4
:10453000F80181839283A383B483A1960FB6F89484
:10454000DEBF0FBECDBFDF91CF911F910F91FF90C6
:10455000EF90DF90CF90BF90AF909F908F907F9023
:104560006F905F904F903F902F9008957F928F9221
:104570009F92AF92BF92CF92DF92EF92FF920F93F2
:104580001F93CF93DF9302EB11E0817099276C01A9
:10459000D801ED91FD918D01C281D38188818D7FFC
:1045A000982EA9F0C114D10491F4B1E0063B1B0789
:1045B00079F7DF91CF911F910F91FF90EF90DF90EE
:1045C000CF90BF90AF909F908F907F900895A080E4
:1045D000B180E12CF12CEA14FB043CF7911077C078
:1045E0008A8087FC5AC08881882321F0823009F4B0
:1045F00037C053C08B819C81892B51F063E070E000
:10460000CE010E940C13672B682B692B09F045C063
:10461000282D880C330BF901E552FE4F8491F901E6
:10462000E953FE4F8490F901ED54FE4F74907720CA
:10463000A1F081110E94EB1EE72DF0E0EE0FFF1FAD
:10464000E755FE4FA591B491EC918E2231E020E028
:1046500009F430E0832F922F1AC080E090E017C059
:10466000282D2E300CF02E502770206420937C00D3
:1046700080917A00806480937A0080917A0086FD30
:10468000FCCF809178002091790090E0922B092E48
:10469000000CAA0BBB0B22E004C020E080E090E0FD
:1046A000DC01EB81FC81408151816281738148177B
:1046B00059076A077B0731F43481321303C0C114F0
:1046C000D10489F080839183A283B3832483E09112
:1046D000AC07F091AD07309731F089859A85892B29
:1046E00011F0CE0109958FEFE81AF80A2B9673CFD7
:1046F000CF92DF92EF92FF920F931F93CF93DF93AE
:10470000DC019C968D919C919D97009749F514161C
:104710001506160617060CF075C0E091AA07F09171
:10472000AB07A0E0B0E0309709F46CC0C280D38042
:10473000E480F580308121814C155D056E057F0593
:1047400059F4109721F03C9311962C9316C0309396
:10475000AA072093AB0711C0DF01E32FF22FE3CFAD
:10476000D696ED91FC91D797C0E0D0E015C082813C
:1047700093812097F1F09B838A83CF0143C004810A
:10478000158126813781401751076207730739F079
:10479000EF010280F381E02D309789F70FC080810F
:1047A0009181009721F3DC012D913C91318320838D
:1047B00029C0D7969C938E93D697DFCFD2960D9132
:1047C0001D912D913C91D5979E96CD90DD90ED90C9
:1047D000FC90D197C01AD10AE20AF30AC416D50692
:1047E000E606F7066CF0800F911F040F151F261FB9
:1047F000371FD2960D931D932D933C93D59702C0EE
:1048000080E090E0DF91CF911F910F91FF90EF90AA
:10481000DF90CF9008958F929F92AF92BF92EF92C8
:10482000FF920F931F93CF93DF938C01EB017A01DB
:1048300046E350E060E070E0209789F486E697E078
:104840000E947823EC01009709F4FEC046E350E093
:1048500060E070E00E94151C81E08AAB03C0CE01CD
:104860000E94151CD70118968D919C9119979B87D2
:104870008A8712968D919C91139714968D909D9096
:10488000AD90BC901797009799F4B8E18B169104FE
:10489000A104B1042CF498E1892E912CA12CB12C07
:1048A000B501A40186E697E00E94782321E02BABB6
:1048B0009F878E87888A998AAA8ABB8A2A8526FD3D
:1048C00004C0B501A4010E94151CF70182859385DF
:1048D0009D878C876081718128E030E040E050E066
:1048E000CE0148960E94CE1DDD83CC8326E637E0BC
:1048F0003B832A83D987C887DF83CE838A859B85BC
:1049000099838883D8011596DC93CE9314971396D8
:104910003C932E931297C017D10729F4D987C887E3
:10492000DF83CE830CC0F801D187C087D783C683CD
:10493000198708870084F185E02D17830683D80145
:104940008D939C938091A6079091A707A091A807AB
:10495000B091A9070097A105B10579F08C019D01DF
:104960000F5F1F4F2F4F3F4F0093A6071093A707CE
:104970002093A8073093A90730C081EA882E86E8E3
:10498000982EAA24A394B12CB1E08B1A9108A10807
:10499000B108F9F02FEF3FEFA90168E070E080E087
:1049A00090E00E94A01EE0916607F09167073097A3
:1049B00069F004891589268937896017710782078C
:1049C000930711F306A4F7A5E02DF1CFDC01CB018D
:1049D00004C081E090E0A0E0B0E08C8B9D8BAE8BBA
:1049E000BF8B86E697E09DA78CA7E0916807F091C2
:1049F0006907F9ABE8AB309719F0D7A7C6A704C091
:104A0000D0936707C0936607D0936907C093680780
:104A1000E0916A07F0916B07309799F0808187FFEA
:104A20000AC0DF01AD58BF4F8D919C911197892B22
:104A300011F4CD93DC93E159FF4F0190F081E02D0B
:104A4000EBCF80E090E002C084E690E0DF91CF9170
:104A50001F910F91FF90EF90BF90AF909F908F901C
:104A60000895AF92BF92CF92DF92EF92FF920F9391
:104A70001F93CF93DF93892B21F169017A015B01A9
:104A800089E096E00E940912EC01092E000CAA0BA5
:104A9000BB0BC816D906EA06FB060CF4E601AE010C
:104AA000B50189E096E00E94981DCE01DD0FAA0BAA
:104AB000BB0BF80180839183A283B38380E090E0F5
:104AC00007C0F801108211821282138284E690E0FE
:104AD000DF91CF911F910F91FF90EF90DF90CF90DA
:104AE000BF90AF900895EF92FF920F931F93CF93D3
:104AF000DF937C0100E010E098018FEF9FEF041737
:104B0000150726073707CCF4F701A1917F018A2703
:104B1000C8E0D0E0DC01B695A79580FF06C0CD01C6
:104B2000F1E08F27F0EA9F2701C0CD01219791F78F
:104B30000F5F1F4F2F4F3F4FE2CFDF91CF911F915C
:104B40000F91FF90EF900895EF92FF920F931F93B4
:104B5000CF93DF938B017C01C0E0D0E0C017D10779
:104B600009F444C02FB7F894809105069091060689
:104B7000A0910706B09108062FBF8093110690936D
:104B80001206A0931306B093140689E096E00E94E3
:104B9000181297FF26C02FB7F894809105069091C0
:104BA0000606A0910706B09108062FBF4091110696
:104BB000509112066091130670911406841B950B98
:104BC000A60BB70B40910D0650910E0660910F0693
:104BD0007091100684179507A607B707B0F28E01EB
:104BE00005C0F70181937F012196B8CFC801DF91FD
:104BF000CF911F910F91FF90EF900895AF92BF92C8
:104C0000CF92DF92EF92FF920F931F93CF93DF9398
:104C1000892B11F169017A015B0189E096E00E941C
:104C20003912EC01092E000CAA0BBB0BC816D906D1
:104C3000EA06FB060CF4E601BE01C5010E94A425AC
:104C4000CE01DD0FAA0BBB0BF80180839183A283F9
:104C5000B38380E090E007C0F801108211821282D5
:104C6000138284E690E0DF91CF911F910F91FF9026
:104C7000EF90DF90CF90BF90AF900895CF93DF93E8
:104C8000CDB7DEB7CD54D1090FB6F894DEBF0FBE55
:104C9000CDBF789484B5826084BD84B5816084BDC5
:104CA00085B5826085BD85B5816085BD80916E00CA
:104CB000816080936E0010928100809181008260FB
:104CC0008093810080918100816080938100809138
:104CD00080008160809380008091B1008460809327
:104CE000B1008091B00081608093B00080917A0023
:104CF000846080937A0080917A00826080937A0049
:104D000080917A00816080937A0080917A00806837
:104D100080937A001092C1008091EC0181110FC044
:104D20004DE050E060E070E08CEE91E00E94151CD8
:104D30001092AB071092AA0781E08093EC0181E00A
:104D40008093EE0192EBE92E91E0F92E26EBE2162C
:104D500021E0F206A1F1D701ED91FD917D01A08046
:104D6000B18002811381A114B10481F3F801928012
:104D700097FC1FC08081882321F08130D1F461E04D
:104D800015C063E070E0C8010E940C13672B682B0C
:104D9000692B79F461E070E0C8010E940C13672B65
:104DA000682B692B11F062E001C060E0892D0E9440
:104DB0005B1DF1E0AF1AB108055F1F4FD4CF4AE089
:104DC00050E060E070E089EF91E00E94151C1092C5
:104DD000FA011092F901E0911906F0911A0682E0A9
:104DE0008083E0911506F09116061082E091170677
:104DF000F091180680E1808310922106E0911D0653
:104E0000F0911E0686E08083E0911B06F0911C065F
:104E1000808180618083E0911B06F0911C06808177
:104E200088608083E0911B06F0911C068081806879
:104E30008083E0911B06F0911C0680818F7D80832A
:104E400045E350E060E070E0CE0101960E94151C41
:104E50001A8219828CEC91E09C838B8381E090E034
:104E6000A0E0B0E08D839E83AF83B88720ED31E072
:104E70003C872B871D861E861F86188A28ED31E009
:104E80003C8B2B8B8D8B9E8BAF8BB88F88E190E00A
:104E9000A0E0B0E0898F9A8FAB8FBC8F8D8F9E8FF3
:104EA000AF8FB8A389E792E09AA389A388E493E03F
:104EB000A0E0B0E08BA39CA3ADA3BEA38CE890E0E0
:104EC00098A78FA389E091E0A0E0B0E089A79AA716
:104ED000ABA7BCA78EE191E09EA78DA783E491E0EC
:104EE00098AB8FA78DA98111D3C044E450E060E056
:104EF00070E086E697E00E94151C89E293E2A0E04C
:104F0000B0E08093A2079093A307A093A407B09367
:104F1000A50788E090E0A0E0B0E08093A60790931A
:104F2000A707A093A807B093A9070B851C85CD8080
:104F3000DE80EF80F8846B817C8128E030E040E007
:104F400050E08EE697E00E94CE1DC0927607D09288
:104F50007707E0927807F092790728E130E040E0A7
:104F600050E0B8018AE797E00E94CE1D8BA09CA07C
:104F7000ADA0BEA081149104A104B10411F109A156
:104F80001AA10115110529F0B501A401C8010E945B
:104F9000151C1093930700939207809294079092A8
:104FA0009507A0929607B0929707109298071092D3
:104FB000990710929A0710929B0710929D071092E2
:104FC0009C074CE050E060E070E0CE01C6960E9485
:104FD000151C8FED91E09FAB8EAB898D9A8DAB8DBB
:104FE000BC8D8AAF9BAFACAFBDAF82E090E09FAF0E
:104FF0008EAFAE014A5C5F4F63E472E087ED95E0EF
:105000000E940B248DA59EA5909378028093770231
:1050100083EE91E09FAB8EAB8D8D9E8DAF8DB8A151
:105020008AAF9BAFACAFBDAF81E090E09FAF8EAFDA
:10503000AE014A5C5F4F6DE072E08DEC95E00E943E
:105040000B248FA598A990934202809341028FA1CF
:1050500098A50097D9F027EE31E03FAB2EAB99AF82
:1050600088AF89A59AA5ABA5BCA58AAF9BAFACAF0D
:10507000BDAF82E490E09FAF8EAFAE014A5C5F4F60
:1050800060E070E083E092E00E940B2481E08DAB51
:1050900044E150E060E070E0CE01C6960E94151C2D
:1050A00089819A819FAB8EAB8D859E85AF85B889AE
:1050B00083709927AA27BB272B893C8939AF28AF52
:1050C0000297A105B10519F080EC90E002C080EED6
:1050D00090E02A969FAF8EAF2A974DE750E060E0B0
:1050E00070E086E697E00E9478238C01009741F1FA
:1050F0004DE750E060E070E00E94151C81E0F8018F
:10510000E458FF4F808386E697E03F979183808342
:1051100080916C0790916D073496918380830097FE
:1051200031F0FC01E159FF4F1183008304C010935B
:105130006B0700936A0710936D0700936C0702C01A
:1051400000E010E0F801E359FF4FA080B1802A96FB
:105150008EAD9FAD2A97AC01092E000C660B770B24
:10516000EEA9FFA9309741F0208120FF05C0916092
:10517000AC01990F660B770BD8019396FC93EE93D5
:105180009297DB01CA01806440FF1AC040ED51E0F4
:1051900060E070E0F801428B538B648B758B40ECC0
:1051A0005FE460E070E0468B578B608F718F24EF77
:1051B00031E0378F268F48EC51E560E070E019C090
:1051C00040E650E060E070E0F801428B538B648B66
:1051D000758B48EC50E060E070E0468B578B608F39
:1051E000718F28E230E0378F268F4FEF50E060E07C
:1051F00070E0428F538F648F758FF80191838083A5
:10520000E75BFF4F1182108268AD79AD20E130E09D
:1052100040E050E0C80102960E94CE1DC8010E94E5
:10522000A319ECACFDACE114F10489F4D801529659
:105230004D915D916D917C915597C5010E947823A8
:105240007C01892B09F448C081E0F80187AFD801BF
:1052500052964D915D916D917C915597C7010E9439
:10526000151CF801F6AAE5AA2496EEACFFAC24972B
:10527000E114F10499F44289538964897589C5015F
:105280000E9478237C01892B21F4C8010E94A31974
:1052900023C081E0F801E95BFF4F8083D80152967B
:1052A0004D915D916D917C915597C7010E94151CA0
:1052B000F801EF5BFF4FF182E0828AAD9BAD009772
:1052C00059F0F80191A380A3808191818462918338
:1052D0008083C8010E948C1B8091CF059091D005DE
:1052E000892B91F0E091D105F091D205309761F0D2
:1052F00080A191A1B6E181389B0709F068C022A185
:1053000033A1232B09F063C084EE97E19093AD079E
:105310008093AC0781E090E00E94B6221092C7050E
:105320001092C605CE0101960E94E31A0E94230145
:105330008091CF059091D005892B79F580E090E0A0
:105340000E94B62240E051E060E070E08CE491E021
:105350000E941E164B015C0140E051E060E070E0ED
:1053600083E591E00E941E167B0140E051E060E081
:1053700070E08AE591E00E941E168B0140E051E04A
:1053800060E070E081E691E00E941E16892869F0D5
:1053900088EC90E0A0E0B0E00CC08090D105909047
:1053A000D20581149104E9F4C9CF88EE93E0A0E01E
:1053B000B0E0EF2821F080E590E0A0E0B0E0012B24
:1053C00009F480C08EE190E0A0E0B0E07BC0892BC2
:1053D00009F09ACF81E896E191A380A313A212A2CB
:1053E00093CFF401828586FDA9CFD4019896AD9024
:1053F000BC909997A114B10409F4A0CFF50182895A
:10540000811106C0D5015E96AD90BC905F97F2CF3A
:10541000F5014284538464847584C684D784E0880B
:10542000F1882E96CCAEDDAEEEAEFFAE2E97D70154
:10543000C60184199509A609B7099C01AD012F5F22
:105440003F4F4F4F5F4F62817381640D751DD401D3
:105450001E968D919C911F97840D951D0E94091E8B
:10546000F501128AD4019096ED91FC9191973097B5
:1054700089F09296CD90DC90939782E0E82EF12C03
:105480002E960CAD1DAD2EAD3FAD2E97B301A201F2
:10549000C4010995F401E4A0F5A0E114F10409F4B4
:1054A000B1CF2E960CAD1DAD2EAD3FAD2E97B301F5
:1054B000A201C7010E949E15D7019196ED90FC9024
:1054C0009297EBCF672B09F086C049815A816B8197
:1054D0007C810091C2051091C3052091C4053091D3
:1054E000C5056A017B01C01AD10AE20AF30A8C15CC
:1054F0009D05AE05BF0594F48091C1058F5F843092
:105500001CF48093C10502C01092C1054093C205EE
:105510005093C3056093C4057093C5051091C105F0
:1055200041E050E060E070E0112319F040E050E00D
:10553000BA0122E030E087E291E00E94A61741E044
:1055400050E060E070E0113019F040E050E0BA0146
:1055500022E030E08EE291E00E94A61741E050E0A8
:1055600060E070E0123019F040E050E0BA0122E053
:1055700030E085E391E00E94A61741E050E060E052
:1055800070E0133019F040E050E0BA0122E030E062
:105590008CE391E00E94A6178091D9059091DA05DD
:1055A000892B29F40E9423010E944012BBCEE09176
:1055B000DB05F091DC053097A9F304A115A10115D5
:1055C000110581F3C8010E94C914D80191960D916B
:1055D0001C919297F4CF85E090E0A0E0B0E075CF09
:1055E000E9E0F6E01382128288EE93E0A0E0B0E0FA
:1055F00084839583A683B78380E191E09183808340
:1056000085EC90E09587848784EC90E09787868787
:1056100080EC90E0918B808B81EC90E0938B828B7F
:1056200082EC90E0958B848B86EC90E0978B868B58
:10563000118E128E138E148E08958F929F92AF92B8
:10564000BF92CF92DF92EF92FF92CF93DF93EC0164
:10565000688179818A819B81611571058105910538
:1056600021F464E279ED8BE597E02DE133EF41E041
:1056700050E00E94E72C49015A019B01AC01A7EAC6
:10568000B1E40E94062D6B017C01ACEEB4EFA501E4
:1056900094010E94142DDC01CB018C0D9D1DAE1DCB
:1056A000BF1DB7FF03C00197A109B0488883998344
:1056B000AA83BB83BC01CD019F77DF91CF91FF907F
:1056C000EF90DF90CF90BF90AF909F908F90089514
:1056D0008F929F92AF92BF92CF92DF92EF92FF9202
:1056E000609104017091050180910601909107017C
:1056F000611571058105910521F464E279ED8BE571
:1057000097E02DE133EF41E050E00E94E72C4901A2
:105710005A019B01AC01A7EAB1E40E94062D6B017E
:105720007C01ACEEB4EFA50194010E94142DDC01C4
:10573000CB018C0D9D1DAE1DBF1DB7FF03C0019792
:10574000A109B0488093040190930501A09306013C
:10575000B0930701BC01CD019F77FF90EF90DF90E0
:10576000CF90BF90AF909F908F9008956093040169
:105770007093050180930601909307010895FB0142
:10578000DC0102C005900D9241505040D8F70895B9
:10579000E89409C097FB3EF49095809570956195CB
:1057A0007F4F8F4F9F4F9923A9F0F92F96E9BB2781
:1057B0009395F695879577956795B795F111F8CFFD
:1057C000FAF4BB0F11F460FF1BC06F5F7F4F8F4F68
:1057D0009F4F16C0882311F096E911C0772321F05E
:1057E0009EE8872F762F05C0662371F096E8862FF6
:1057F00070E060E02AF09A95660F771F881FDAF74D
:10580000880F9695879597F90895990F0008550F79
:10581000AA0BE0E8FEEF16161706E807F907C0F036
:1058200012161306E407F50798F0621B730B840B3E
:10583000950B39F40A2661F0232B242B252B21F418
:1058400008950A2609F4A140A6958FEF811D811DB8
:1058500008950E943C2C0C94AD2C0E949F2C38F093
:105860000E94A62C20F0952311F00C94962C0C94F9
:105870009C2C11240C94E12C0E94BE2C70F3959F5B
:10588000C1F3950F50E0551F629FF001729FBB2737
:10589000F00DB11D639FAA27F00DB11DAA1F649FD3
:1058A0006627B00DA11D661F829F2227B00DA11D86
:1058B000621F739FB00DA11D621F839FA00D611D0C
:1058C000221F749F3327A00D611D231F849F600D2D
:1058D000211D822F762F6A2F11249F5750409AF056
:1058E000F1F088234AF0EE0FFF1FBB1F661F771FE2
:1058F000881F91505040A9F79E3F510580F00C94AD
:10590000962C0C94E12C5F3FE4F3983ED4F38695FB
:1059100077956795B795F795E7959F5FC1F7FE2B4C
:10592000880F911D9695879597F9089597F99F6728
:1059300080E870E060E008959FEF80EC0895002417
:105940000A941616170618060906089500240A94E4
:1059500012161306140605060895092E0394000C6A
:1059600011F4882352F0BB0F40F4BF2B11F460FFF9
:1059700004C06F5F7F4F8F4F9F4F089557FD905822
:10598000440F551F59F05F3F71F04795880F97FB03
:10599000991F61F09F3F79F08795089512161306BD
:1059A0001406551FF2CF4695F1DF08C016161706EC
:1059B0001806991FF1CF8695710561050894089521
:1059C000E894BB2766277727CB0197F90895052E22
:1059D00097FB1EF400940E94FE2C57FD07D00E94F6
:1059E000192D07FC03D04EF40C94FE2C50954095D5
:1059F000309521953F4F4F4F5F4F0895909580957B
:105A0000709561957F4F8F4F9F4F08950E943B2D5A
:105A1000A59F900DB49F900DA49F800D911D112402
:105A20000895B7FF0C94062D0E94062D821B930B40
:105A30000895A1E21A2EAA1BBB1BFD010DC0AA1FCF
:105A4000BB1FEE1FFF1FA217B307E407F50720F0E7
:105A5000A21BB30BE40BF50B661F771F881F991F62
:105A60001A9469F760957095809590959B01AC01AB
:105A7000BD01CF010895A29FB001B39FC001A39FB4
:105A8000700D811D1124911DB29F700D811D112477
:105A9000911D0895DB018F939F930E94062DBF9166
:105AA000AF91A29F800D911DA39F900DB29F900D6D
:105AB00011240895EE0FFF1F0590F491E02D099435
:105AC0005058BB27AA270E94782D0C94AD2C0E9419
:105AD0009F2C38F00E94A62C20F039F49F3F19F437
